:020000040800F2
:100000001004002035050008DD050008DF050008A4
:1000100000000000000000000000000000000000E0
:10002000000000000000000000000000E3050008E0
:100030000000000000000000E5050008E7050008DA
:10004000CF030008D30300081F0600082B06000892
:100050004D0600084F060008510600085306000828
:100060005506000857060008590600085B060008F8
:100070005D0600085F0600086106000863060008C8
:100080006506000867060008690600086B06000898
:100090006D0600086F060008710600087306000868
:1000A0007506000877060008790600087B06000838
:1000B0007D0600087F060008810600088306000808
:1000C000F0B540B2002822D5504C40B20207120FC2
:1000D000083A1500AD08042255434C4A40B20307C4
:1000E0001B0F083B9B0804267343D258FF23860747
:1000F000B60F08277E43B3409A438B01DBB28607D5
:10010000B60F08277E43B340134363511CE0404AB7
:1001100040B203009B0804246343D258FF238407A2
:10012000A40F08256C43A3409A438B01DBB28407DC
:10013000A40F08256C43A3401343354A40B2040082
:10014000A40804256C431351F0BD10B50400601ED3
:1001500080214904884201D301200EE0601E2D4910
:10016000086003210020C043FFF7AAFF00202A49AE
:100170000860072029490860002010BD00B583B041
:1001800000F037F801218020800200F04FF8202095
:10019000009001206946087100206946887103209B
:1001A0006946487100206946C87169469020C005BB
:1001B00000F04EF8012220219020C00500F0A7F8A1
:1001C0001748006800F00BF8002220219020C0059D
:1001D00000F09DF81248006800F001F8EAE701B568
:1001E000104800680F490968091A009A9142F9D32A
:1001F00001BD80B50C480068FA21890000F090F834
:10020000FFF7A3FF002800D0FEE701BD1CED00E0D2
:1002100000E400E014E000E018E000E010E000E09E
:1002200000000020080000200400002000B5C9B232
:10023000002905D0054A12680243044B1A6004E005
:10024000024A12688243014B1A6000BD141002403A
:10025000F0B500220023002400252A00102A55D2E0
:10026000012595402B000D681D402C009C424BD170
:100270000D79012D02D00D79022D1DD1866803273D
:10028000BC46150002277D436746AF40BE438660EB
:1002900086684F79BC46150002277D436746AF400C
:1002A00037438760858801269640B54385808588D9
:1002B0008E7996402E43868006680327BC4615003B
:1002C00002277D436746AF40BE43066006680F794C
:1002D000BC46150002277D436746AF4037430760A1
:1002E000C6680327BC46150002277D436746AF401A
:1002F000BE43C660C668CF79BC46150002277D4361
:100300006746AF403743C760521CA7E7F0BD00B552
:10031000D2B2002A02D089B2816100E0018500BD1D
:100320000022030A8B420BD203098B4219D24308E5
:100330008B422ED2411A00D20146524110467047DC
:10034000FF2209023FD012068B4205D31212090286
:100350008B4201D31212090203098B4219D300E028
:10036000090AC3098B4201D3CB01C01A5241830948
:100370008B4201D38B01C01A524143098B4201D3F6
:100380004B01C01A524103098B4201D30B01C01A21
:100390005241C3088B4201D3CB00C01A524183089B
:1003A0008B4201D38B00C01A524143088B4201D3C8
:1003B0004B00C01A5241884200D3401A5241CFD25A
:1003C00001461046704708B500F002F808BDFEE788
:1003D0007047FEE780B54A4800680121014348485C
:1003E0000160484800684849014046480160444867
:1003F000006846490140424801604148006844495C
:1004000001403F4801603F480068424901403D4883
:100410000160414800680F2188433F4908603F4818
:1004200000683F4901403D4801603E4800680121A5
:1004300088433C49086000203B49086000F001F80F
:1004400001BDC0B500200190002000902C4800683C
:100450008021490201432A4801602948006880211F
:100460008902084000900198401C019000980028E3
:1004700004D10198A021C9018842EED1204800682A
:10048000800302D50120009001E000200090009838
:10049000012834D11120254908601A4800681949FB
:1004A0000860184800681749086016480068204925
:1004B0000140144801601348006888214903014342
:1004C000104801600E4800688021490401430C482F
:1004D00001600B4800688001FBD50A4800680321D1
:1004E000884308490860074800680221014305481D
:1004F0000160044800680C2101400829F9D103BDBE
:1005000000100240041002400CB8FFF8FFFFF6FE96
:10051000FFFFFBFFFFFFC0FF2C1002403010024026
:10052000ACFEFFFF341002400810024000200240E1
:10053000FF7FC0FF094880F3088804200168090E86
:100540001F22914205D10648012101600548002182
:10055000016005488047054800470000100400205E
:100560001810024000000140D503000841060008B1
:1005700030B401210268001D002A0FD00368C3189F
:10058000446808300C4202D04D466D1E64191D6847
:1005900025601B1D241D121FECD0F8E730BC7047EE
:1005A00010B5074979441831064C7C44163404E0F0
:1005B000081D0A68891888470100A142F8D110BDBA
:1005C0000800000018000000A9FFFFFF0C00000059
:1005D000B40000000000002000000000704700B5DB
:1005E000FEE77047704703480068401C01490860F7
:1005F000704700000800002000F00BF8002801D030
:10060000FFF7CEFF0020C046C046FFF7B7FD00F061
:1006100002F80120704780B500F002F801BDFEE746
:100620000746384600F002F8FBE7FEE780B5C04613
:10063000C046024A11001820ABBEFBE726000200AC
:10064000C046C046C046C046FFF7D6FFFEE7FEE7FD
:10065000FEE7FEE7FEE7FEE7FEE7FEE7FEE7FEE772
:10066000FEE7FEE7FEE7FEE7FEE7FEE7FEE7FEE762
:10067000FEE7FEE7FEE7FEE7FEE7FEE7FEE7FEE752
:10068000FEE7FEE7E8030000006CDC02000000006B
:0400000508000641A8
:00000001FF
